{
  "_format": "hh-sol-artifact-1",
  "contractName": "RWAFactory",
  "sourceName": "contracts/RWAFactory.sol",
  "abi": [
    {
      "inputs": [],
      "name": "PoolsLengthMismatch",
      "type": "error"
    },
    {
      "inputs": [],
      "name": "UpgradeFailed",
      "type": "error"
    },
    {
      "anonymous": false,
      "inputs": [
        {
          "indexed": true,
          "internalType": "address",
          "name": "previousOwner",
          "type": "address"
        },
        {
          "indexed": true,
          "internalType": "address",
          "name": "newOwner",
          "type": "address"
        }
      ],
      "name": "OwnershipTransferStarted",
      "type": "event"
    },
    {
      "anonymous": false,
      "inputs": [
        {
          "indexed": true,
          "internalType": "address",
          "name": "previousOwner",
          "type": "address"
        },
        {
          "indexed": true,
          "internalType": "address",
          "name": "newOwner",
          "type": "address"
        }
      ],
      "name": "OwnershipTransferred",
      "type": "event"
    },
    {
      "anonymous": false,
      "inputs": [
        {
          "indexed": true,
          "internalType": "address",
          "name": "pool",
          "type": "address"
        },
        {
          "indexed": false,
          "internalType": "uint256",
          "name": "pid",
          "type": "uint256"
        }
      ],
      "name": "PoolCreated",
      "type": "event"
    },
    {
      "anonymous": false,
      "inputs": [
        {
          "indexed": true,
          "internalType": "address",
          "name": "pool",
          "type": "address"
        },
        {
          "indexed": false,
          "internalType": "address",
          "name": "implementation",
          "type": "address"
        }
      ],
      "name": "PoolUpgraded",
      "type": "event"
    },
    {
      "inputs": [],
      "name": "INITIALIZE_SELECTOR",
      "outputs": [
        {
          "internalType": "bytes4",
          "name": "",
          "type": "bytes4"
        }
      ],
      "stateMutability": "view",
      "type": "function"
    },
    {
      "inputs": [],
      "name": "UPGRADE_SELECTOR",
      "outputs": [
        {
          "internalType": "bytes4",
          "name": "",
          "type": "bytes4"
        }
      ],
      "stateMutability": "view",
      "type": "function"
    },
    {
      "inputs": [],
      "name": "acceptOwnership",
      "outputs": [],
      "stateMutability": "nonpayable",
      "type": "function"
    },
    {
      "inputs": [
        {
          "internalType": "string",
          "name": "_name",
          "type": "string"
        },
        {
          "internalType": "string",
          "name": "_symbol",
          "type": "string"
        },
        {
          "internalType": "address",
          "name": "_stablecoin",
          "type": "address"
        },
        {
          "internalType": "address",
          "name": "_admin",
          "type": "address"
        },
        {
          "internalType": "address",
          "name": "_minter",
          "type": "address"
        },
        {
          "internalType": "address",
          "name": "_burner",
          "type": "address"
        },
        {
          "internalType": "address",
          "name": "_rebaseAdmin",
          "type": "address"
        },
        {
          "internalType": "address",
          "name": "_reserve",
          "type": "address"
        },
        {
          "internalType": "address",
          "name": "_receipient",
          "type": "address"
        }
      ],
      "name": "createPool",
      "outputs": [
        {
          "internalType": "address",
          "name": "pool",
          "type": "address"
        },
        {
          "internalType": "uint256",
          "name": "poolId",
          "type": "uint256"
        }
      ],
      "stateMutability": "nonpayable",
      "type": "function"
    },
    {
      "inputs": [],
      "name": "owner",
      "outputs": [
        {
          "internalType": "address",
          "name": "",
          "type": "address"
        }
      ],
      "stateMutability": "view",
      "type": "function"
    },
    {
      "inputs": [],
      "name": "pendingOwner",
      "outputs": [
        {
          "internalType": "address",
          "name": "",
          "type": "address"
        }
      ],
      "stateMutability": "view",
      "type": "function"
    },
    {
      "inputs": [
        {
          "internalType": "uint256",
          "name": "",
          "type": "uint256"
        }
      ],
      "name": "pools",
      "outputs": [
        {
          "internalType": "address",
          "name": "",
          "type": "address"
        }
      ],
      "stateMutability": "view",
      "type": "function"
    },
    {
      "inputs": [],
      "name": "renounceOwnership",
      "outputs": [],
      "stateMutability": "nonpayable",
      "type": "function"
    },
    {
      "inputs": [
        {
          "internalType": "address",
          "name": "newOwner",
          "type": "address"
        }
      ],
      "name": "transferOwnership",
      "outputs": [],
      "stateMutability": "nonpayable",
      "type": "function"
    },
    {
      "inputs": [
        {
          "internalType": "address[]",
          "name": "_pools",
          "type": "address[]"
        },
        {
          "internalType": "address[]",
          "name": "_implementations",
          "type": "address[]"
        }
      ],
      "name": "upgradePools",
      "outputs": [],
      "stateMutability": "nonpayable",
      "type": "function"
    }
  ],
  "bytecode": "0x608060405234801561000f575f80fd5b506100193361001e565b610089565b600180546001600160a01b03191690556100378161003a565b50565b5f80546001600160a01b038381166001600160a01b0319831681178455604051919092169283917f8be0079c531659141344cd1fd0a4f28419497f9722a3daafe3b4186f6b6457e09190a35050565b615e21806100965f395ff3fe608060405234801562000010575f80fd5b5060043610620000a8575f3560e01c806379ba5097116200006b57806379ba509714620001805780638da5cb5b146200018a578063ac4afa3814620001af578063e30c397814620001c6578063f2fde38b14620001d8575f80fd5b80633dedf86714620000ac57806356e71eda14620000e75780636dbda217146200010b5780636ff14b6f146200015d578063715018a61462000176575b5f80fd5b620000c3620000bd3660046200084f565b620001ef565b604080516001600160a01b0390931683526020830191909152015b60405180910390f35b620000f162000382565b6040516001600160e01b03199091168152602001620000de565b60408051808201909152601281527175706772616465546f28616464726573732960701b602090910152620000f17f3659cfe672549963da205df855ebfb8672cda4801e0255183bd6a6f536855df781565b620001746200016e36600462000980565b620003a6565b005b620001746200045a565b6200017462000471565b5f546001600160a01b03165b6040516001600160a01b039091168152602001620000de565b62000196620001c0366004620009ee565b620004f3565b6001546001600160a01b031662000196565b62000174620001e936600462000a06565b6200051c565b5f80620001fb6200058f565b604051620002099062000772565b604051809103905ff08015801562000223573d5f803e3d5ffd5b5091508160405180608001604052806051815260200162005d9b60519139805190602001208c8c8c8c8c8c8c8c8c6040516024016200026b9998979695949392919062000a7a565b60408051601f198184030181529181526020820180516001600160e01b03166001600160e01b0319909416939093179092529051620002aa9062000780565b620002b792919062000af1565b604051809103905ff080158015620002d1573d5f803e3d5ffd5b5060028054600180820183555f8390527f405787fa12a823e0f2b7631cc41b3ba8828b3321ca811111fa75cd3aa3bb5ace90910180546001600160a01b0319166001600160a01b03851617905590549193506200032e9162000b32565b9050816001600160a01b03167f641e49906554552c8c33d7e09e02d1270590f405bc1da0c7b99a9c2808abdd05826040516200036c91815260200190565b60405180910390a2995099975050505050505050565b60405180608001604052806051815260200162005d9b605191398051906020012081565b620003b06200058f565b828114620003d15760405163fc2dee4760e01b815260040160405180910390fd5b5f5b8381101562000453576200043e858583818110620003f557620003f562000b4e565b90506020020160208101906200040c919062000a06565b84848481811062000421576200042162000b4e565b905060200201602081019062000438919062000a06565b620005ea565b806200044a8162000b62565b915050620003d3565b5050505050565b620004646200058f565b6200046f5f6200070e565b565b60015433906001600160a01b03168114620004e55760405162461bcd60e51b815260206004820152602960248201527f4f776e61626c6532537465703a2063616c6c6572206973206e6f7420746865206044820152683732bb9037bbb732b960b91b60648201526084015b60405180910390fd5b620004f0816200070e565b50565b6002818154811062000503575f80fd5b5f918252602090912001546001600160a01b0316905081565b620005266200058f565b600180546001600160a01b0383166001600160a01b03199091168117909155620005575f546001600160a01b031690565b6001600160a01b03167f38d16b8cac22d99fc7c124b9cd0de2d3fa1faef420bfe791d8c362d765e2270060405160405180910390a350565b5f546001600160a01b031633146200046f5760405162461bcd60e51b815260206004820181905260248201527f4f776e61626c653a2063616c6c6572206973206e6f7420746865206f776e65726044820152606401620004dc565b604080518082018252601281527175706772616465546f28616464726573732960701b60209182015281516001600160a01b03848116602480840191909152845180840390910181526044909201845291810180516001600160e01b0316631b2ce7f360e11b17905291515f9291851691620006669162000b7d565b5f604051808303815f865af19150503d805f8114620006a1576040519150601f19603f3d011682016040523d82523d5f602084013e620006a6565b606091505b5050905080620006c9576040516355299b4960e01b815260040160405180910390fd5b6040516001600160a01b0383811682528416907f82cc5194ed1e660e8a6a4b2c99f7305283b16d8db2a1b2c9bb440096a4a074359060200160405180910390a2505050565b600180546001600160a01b0319169055620004f0815f80546001600160a01b038381166001600160a01b0319831681178455604051919092169283917f8be0079c531659141344cd1fd0a4f28419497f9722a3daafe3b4186f6b6457e09190a35050565b614d3c8062000b9b83390190565b6104c480620058d783390190565b634e487b7160e01b5f52604160045260245ffd5b5f82601f830112620007b2575f80fd5b813567ffffffffffffffff80821115620007d057620007d06200078e565b604051601f8301601f19908116603f01168101908282118183101715620007fb57620007fb6200078e565b8160405283815286602085880101111562000814575f80fd5b836020870160208301375f602085830101528094505050505092915050565b80356001600160a01b03811681146200084a575f80fd5b919050565b5f805f805f805f805f6101208a8c03121562000869575f80fd5b893567ffffffffffffffff8082111562000881575f80fd5b6200088f8d838e01620007a2565b9a5060208c0135915080821115620008a5575f80fd5b50620008b48c828d01620007a2565b985050620008c560408b0162000833565b9650620008d560608b0162000833565b9550620008e560808b0162000833565b9450620008f560a08b0162000833565b93506200090560c08b0162000833565b92506200091560e08b0162000833565b9150620009266101008b0162000833565b90509295985092959850929598565b5f8083601f84011262000946575f80fd5b50813567ffffffffffffffff8111156200095e575f80fd5b6020830191508360208260051b850101111562000979575f80fd5b9250929050565b5f805f806040858703121562000994575f80fd5b843567ffffffffffffffff80821115620009ac575f80fd5b620009ba8883890162000935565b90965094506020870135915080821115620009d3575f80fd5b50620009e28782880162000935565b95989497509550505050565b5f60208284031215620009ff575f80fd5b5035919050565b5f6020828403121562000a17575f80fd5b62000a228262000833565b9392505050565b5f5b8381101562000a4557818101518382015260200162000a2b565b50505f910152565b5f815180845262000a6681602086016020860162000a29565b601f01601f19169290920160200192915050565b5f61012080835262000a8f8184018d62000a4d565b9050828103602084015262000aa5818c62000a4d565b6001600160a01b039a8b166040850152988a1660608401525050948716608086015292861660a085015290851660c0840152841660e08301529092166101009092019190915292915050565b6001600160a01b03831681526040602082018190525f9062000b169083018462000a4d565b949350505050565b634e487b7160e01b5f52601160045260245ffd5b8181038181111562000b485762000b4862000b1e565b92915050565b634e487b7160e01b5f52603260045260245ffd5b5f6001820162000b765762000b7662000b1e565b5060010190565b5f825162000b9081846020870162000a29565b919091019291505056fe60a060405230608052348015610013575f80fd5b50608051614cf46100485f395f81816112a1015281816112ea015281816114450152818161148501526115160152614cf45ff3fe6080604052600436106104e6575f3560e01c806389edeb7411610283578063c45a015511610155578063dd62ed3e116100c9578063ed666d2f11610083578063ed666d2f14610ebc578063ef037fb914610edb578063ef5ca1b014610efa578063f5eb42dc14610f10578063f851a44014610f44578063fca3b5aa14610f64575f80fd5b8063dd62ed3e14610e05578063e32f17fa14610e24578063e396556114610e39578063e642ed3514610e58578063e7bcca0b14610e77578063e9cbd82214610e96575f80fd5b8063ce7c2ac21161011a578063ce7c2ac214610d52578063d1725fb414610d7d578063d505accf14610d93578063d64e539614610db2578063db006a7514610dd2578063dd42c22814610df1575f80fd5b8063c45a015514610cba578063c76b5f5f14610cda578063ca8c2c6b14610cf9578063cd3293de14610d18578063cd4d0bcf14610d38575f80fd5b80639d858937116101f7578063aa464066116101b1578063aa46406614610c1a578063ab6a5ebd14610c30578063b0e21e8a14610c50578063b2a1778714610c66578063bc4f2d6d14610c7c578063bfcd254214610c9b575f80fd5b80639d85893714610b53578063a457c2d714610b7f578063a503229714610b9e578063a9059cbb14610bbd578063a969ff0a14610bdc578063a996d6ce14610bfb575f80fd5b80638fcb4e5b116102485780638fcb4e5b14610ad757806392bccb8014610af657806394d11beb146106d157806395d89b4114610b0a578063965fa21e14610b1e5780639cecc80a14610b34575f80fd5b806389edeb7414610a625780638b174c4e14610a785780638d044c0614610a8e5780638de6928414610aa25780638eff010614610ac1575f80fd5b80633740ebb3116103bc57806365422a18116103305780637ecebe00116102ea5780637ecebe00146109b457806383198334146109d3578063837018fa146109f25780638381c96714610a065780638399f93f14610a2557806384b0196e14610a3b575f80fd5b806365422a18146108ed57806370a082311461091957806373a95ddd1461093857806375829def14610957578063761487e014610976578063770c8f7414610995575f80fd5b80634b48f20d116103815780634b48f20d1461084a5780634f1ef2861461086957806352d1902d1461087c578063578da72a146108905780635e047822146108af57806361ddea57146108ce575f80fd5b80633740ebb3146107ca57806339509351146107ea5780633a98ef3914610809578063423328be1461081e5780634abbb14814610834575f80fd5b80632056aa121161045e57806327810b6e1161041857806327810b6e146106e65780632a91868f146107065780632ef009e11461071c578063313ce5671461077c5780633644e515146107975780633659cfe6146107ab575f80fd5b80632056aa121461064957806323b872dd1461065d578063240de2771461067c578063240de8811461069b57806326782247146106b1578063271662ec146106d1575f80fd5b80630bb4299a116104af5780630bb4299a146105c05780630e18b681146105d6578063134ac62f146105ea57806318160ddd146106005780631924063e146106145780631e652d831461062a575f80fd5b8062b55399146104ea57806306fdde031461050b5780630754617214610535578063095ea7b31461056d5780630acbf5dd1461059c575b5f80fd5b3480156104f5575f80fd5b50610509610504366004614493565b610f83565b005b348015610516575f80fd5b5061051f610fec565b60405161052c91906144f7565b60405180910390f35b348015610540575f80fd5b5061016c54610555906001600160a01b031681565b6040516001600160a01b03909116815260200161052c565b348015610578575f80fd5b5061058c61058736600461451f565b61107c565b604051901515815260200161052c565b3480156105a7575f80fd5b506105b26101825481565b60405190815260200161052c565b3480156105cb575f80fd5b506105b26101815481565b3480156105e1575f80fd5b50610509611095565b3480156105f5575f80fd5b506105b261017d5481565b34801561060b575f80fd5b506105b261111f565b34801561061f575f80fd5b506105b261017b5481565b348015610635575f80fd5b50610509610644366004614493565b61112d565b348015610654575f80fd5b5061050961118f565b348015610668575f80fd5b5061058c610677366004614547565b6111f5565b348015610687575f80fd5b50610509610696366004614580565b611218565b3480156106a6575f80fd5b506105b26101725481565b3480156106bc575f80fd5b5061016854610555906001600160a01b031681565b3480156106dc575f80fd5b506105b261271081565b3480156106f1575f80fd5b5061016d54610555906001600160a01b031681565b348015610711575f80fd5b506105b26101805481565b348015610727575f80fd5b5061075c6107363660046145a0565b61016f6020525f90815260409020546001600160801b0380821691600160801b90041682565b604080516001600160801b0393841681529290911660208301520161052c565b348015610787575f80fd5b506040516012815260200161052c565b3480156107a2575f80fd5b506105b261128e565b3480156107b6575f80fd5b506105096107c53660046145a0565b611297565b3480156107d5575f80fd5b5061016b54610555906001600160a01b031681565b3480156107f5575f80fd5b5061058c61080436600461451f565b61137d565b348015610814575f80fd5b506105b260cd5481565b348015610829575f80fd5b506105b261017f5481565b34801561083f575f80fd5b506105b26101775481565b348015610855575f80fd5b506105096108643660046145a0565b61139e565b610509610877366004614640565b61143b565b348015610887575f80fd5b506105b261150a565b34801561089b575f80fd5b506105096108aa366004614493565b6115bb565b3480156108ba575f80fd5b506105b26108c93660046145a0565b61161d565b3480156108d9575f80fd5b506105096108e8366004614493565b611649565b3480156108f8575f80fd5b506105b26109073660046145a0565b61016e6020525f908152604090205481565b348015610924575f80fd5b506105b26109333660046145a0565b6116ab565b348015610943575f80fd5b506101645461058c90610100900460ff1681565b348015610962575f80fd5b506105096109713660046145a0565b6116cc565b348015610981575f80fd5b506105b2610990366004614493565b611772565b3480156109a0575f80fd5b506105096109af36600461469e565b6117b3565b3480156109bf575f80fd5b506105b26109ce3660046145a0565b611ab0565b3480156109de575f80fd5b506105096109ed36600461472b565b611acd565b3480156109fd575f80fd5b50610509611d21565b348015610a11575f80fd5b50610509610a20366004614493565b611d84565b348015610a30575f80fd5b506105b26101765481565b348015610a46575f80fd5b50610a4f611de6565b60405161052c97969594939291906147fc565b348015610a6d575f80fd5b506105b261017c5481565b348015610a83575f80fd5b506105b261017a5481565b348015610a99575f80fd5b50610509611e7f565b348015610aad575f80fd5b50610509610abc36600461451f565b611ee3565b348015610acc575f80fd5b506105b26101715481565b348015610ae2575f80fd5b506105b2610af136600461451f565b6121dd565b348015610b01575f80fd5b50610509612289565b348015610b15575f80fd5b5061051f6122f1565b348015610b29575f80fd5b506105b261017e5481565b348015610b3f575f80fd5b50610509610b4e3660046145a0565b612300565b348015610b5e575f80fd5b506105b2610b6d3660046145a0565b6101706020525f908152604090205481565b348015610b8a575f80fd5b5061058c610b9936600461451f565b61239d565b348015610ba9575f80fd5b50610509610bb836600461469e565b612417565b348015610bc8575f80fd5b5061058c610bd736600461451f565b61265d565b348015610be7575f80fd5b50610509610bf6366004614493565b61266a565b348015610c06575f80fd5b50610509610c153660046145a0565b61271b565b348015610c25575f80fd5b506105b26101785481565b348015610c3b575f80fd5b5061016954610555906001600160a01b031681565b348015610c5b575f80fd5b506105b26101735481565b348015610c71575f80fd5b506105b26101755481565b348015610c87575f80fd5b50610509610c96366004614493565b6127b8565b348015610ca6575f80fd5b506105b2610cb5366004614493565b61292f565b348015610cc5575f80fd5b5061016554610555906001600160a01b031681565b348015610ce5575f80fd5b50610509610cf43660046145a0565b612964565b348015610d04575f80fd5b50610509610d13366004614493565b6129eb565b348015610d23575f80fd5b5061016a54610555906001600160a01b031681565b348015610d43575f80fd5b506101645461058c9060ff1681565b348015610d5d575f80fd5b506105b2610d6c3660046145a0565b60cc6020525f908152604090205481565b348015610d88575f80fd5b506105b26101795481565b348015610d9e575f80fd5b50610509610dad366004614890565b612aa0565b348015610dbd575f80fd5b5061016654610555906001600160a01b031681565b348015610ddd575f80fd5b50610509610dec366004614493565b612bf5565b348015610dfc575f80fd5b506105b2612e59565b348015610e10575f80fd5b506105b2610e1f3660046148fd565b612e96565b348015610e2f575f80fd5b506105b261708081565b348015610e44575f80fd5b50610509610e53366004614493565b612ec0565b348015610e63575f80fd5b50610509610e72366004614580565b612f89565b348015610e82575f80fd5b50610509610e913660046145a0565b61301a565b348015610ea1575f80fd5b5061016454610555906201000090046001600160a01b031681565b348015610ec7575f80fd5b506105b2610ed63660046145a0565b6130b7565b348015610ee6575f80fd5b50610509610ef5366004614493565b6130e5565b348015610f05575f80fd5b506105b26101745481565b348015610f1b575f80fd5b506105b2610f2a3660046145a0565b6001600160a01b03165f90815260cc602052604090205490565b348015610f4f575f80fd5b5061016754610555906001600160a01b031681565b348015610f6f575f80fd5b50610509610f7e3660046145a0565b613150565b610167546001600160a01b03163314610faf57604051634755657960e01b815260040160405180910390fd5b61017f8190556040518181527f60fd22e0c9b296cbd46703dd926086f40e4c896b64f0afc6e9af6732fd36bbd2906020015b60405180910390a150565b606060368054610ffb9061492e565b80601f01602080910402602001604051908101604052809291908181526020018280546110279061492e565b80156110725780601f1061104957610100808354040283529160200191611072565b820191905f5260205f20905b81548152906001019060200180831161105557829003601f168201915b5050505050905090565b5f336110898185856131ed565b60019150505b92915050565b610168546001600160a01b031633146110c157604051634755657960e01b815260040160405180910390fd5b610167805461016880546001600160a01b03198084166001600160a01b038381169182179096559116909155604051929091169182907ff8ccb027dfcd135e000e9d45e6cc2d662578a8825d4c45b5e32e0adf67e79ec6905f90a350565b5f611128613310565b905090565b610167546001600160a01b0316331461115957604051634755657960e01b815260040160405180910390fd5b6101828190556040518181527f847e5de2ad67ac076a9b318d77b6bac1dc6096116c52f45507ab0131bba6adce90602001610fe1565b61016c546001600160a01b031633146111bb57604051639cdc2ed560e01b815260040160405180910390fd5b610164805460ff1916600117905560405133907fcd71257f2998474633e94cfffa045014068f6218ffdca256b6f4aa9d5f15fb89905f90a2565b5f3361120285828561332b565b61120d8585856133a3565b506001949350505050565b610167546001600160a01b0316331461124457604051634755657960e01b815260040160405180910390fd5b61017d82905561017e81905560408051838152602081018390527fb404cac19fb1cbeff98d325795b08886e3cd8fe8cb1a2f193aac66f13fb239c391015b60405180910390a15050565b5f61112861345a565b6001600160a01b037f00000000000000000000000000000000000000000000000000000000000000001630036112e85760405162461bcd60e51b81526004016112df90614960565b60405180910390fd5b7f00000000000000000000000000000000000000000000000000000000000000006001600160a01b03166113305f80516020614c78833981519152546001600160a01b031690565b6001600160a01b0316146113565760405162461bcd60e51b81526004016112df906149ac565b61135f81613463565b604080515f8082526020820190925261137a9183919061348f565b50565b5f3361108981858561138f8383612e96565b6113999190614a0c565b6131ed565b610167546001600160a01b031633146113ca57604051634755657960e01b815260040160405180910390fd5b6001600160a01b0381166113f15760405163d92e233d60e01b815260040160405180910390fd5b61016b80546001600160a01b0319166001600160a01b0383169081179091556040517f4e8038c85ccd41777ff692b6d98418aa13b143d93efc1299f794a9f646bc64d4905f90a250565b6001600160a01b037f00000000000000000000000000000000000000000000000000000000000000001630036114835760405162461bcd60e51b81526004016112df90614960565b7f00000000000000000000000000000000000000000000000000000000000000006001600160a01b03166114cb5f80516020614c78833981519152546001600160a01b031690565b6001600160a01b0316146114f15760405162461bcd60e51b81526004016112df906149ac565b6114fa82613463565b6115068282600161348f565b5050565b5f306001600160a01b037f000000000000000000000000000000000000000000000000000000000000000016146115a95760405162461bcd60e51b815260206004820152603860248201527f555550535570677261646561626c653a206d757374206e6f742062652063616c60448201527f6c6564207468726f7567682064656c656761746563616c6c000000000000000060648201526084016112df565b505f80516020614c7883398151915290565b610167546001600160a01b031633146115e757604051634755657960e01b815260040160405180910390fd5b6101808190556040518181527f3725de8f49db9f6a36d1bfeb9bd0b8c9be4f71a2cc86379f7ab709c0fcd1585890602001610fe1565b6001600160a01b0381165f90815261016e602052604081205461163f836116ab565b61108f9190614a0c565b610167546001600160a01b0316331461167557604051634755657960e01b815260040160405180910390fd5b6101818190556040518181527f3725de8f49db9f6a36d1bfeb9bd0b8c9be4f71a2cc86379f7ab709c0fcd1585890602001610fe1565b6001600160a01b0381165f90815260cc602052604081205461108f9061292f565b610167546001600160a01b031633146116f857604051634755657960e01b815260040160405180910390fd5b6001600160a01b03811661171f5760405163d92e233d60e01b815260040160405180910390fd5b61016880546001600160a01b0319166001600160a01b0383811691821790925561016754604051919216907fe5cd1c804f1c9cc6d7009e4c0fb532f0e2d8863524c3323a6b3790c3f80bf25c905f90a350565b5f8061177c613310565b9050805f0361178d57505f92915050565b8060cd548461179c9190614a1f565b6117a69190614a4a565b9392505050565b50919050565b61016d546001600160a01b031633146117df57604051633703c1a360e11b815260040160405180910390fd5b6117e76135fe565b61016454610100900460ff1680156118125760405163aadfaddd60e01b815260040160405180910390fd5b6101755460cd545f91829182611826613310565b90505f5b87811015611a9c575f945088888281811061184757611847614a5d565b905060200201602081019061185c91906145a0565b610166549096506001600160a01b0316158015906118e257506101665460405163fbac395160e01b81526001600160a01b0388811660048301529091169063fbac395190602401602060405180830381865afa1580156118be573d5f803e3d5ffd5b505050506040513d601f19601f820116820180604052508101906118e29190614a71565b156119005760405163570b866160e11b815260040160405180910390fd5b6001600160a01b0386165f90815261016f602052604081209061193b82546001600160801b03808216600160801b9092048116919091031690565b90505f5b81811015611999575f8061195285613659565b6101825491935091506119658242614a90565b101561197557505060010161193f565b61197f828b614a0c565b995061198a856136bd565b5050826001019250505061193f565b50865f036119ab57505060010161182a565b5f856119b7868a614a1f565b6119c19190614a4a565b90505f61271061017e546127106119d89190614a90565b6119e29084614a1f565b6119ec9190614a4a565b90506119f88183614a90565b6101735f828254611a099190614a0c565b90915550611a1990508a8a613761565b611a238289614a90565b6001600160a01b038b165f908152610170602052604081208054929a508b92909190611a50908490614a90565b90915550611a6090508287614a90565b9550611a6c8988614a90565b61016454909750611a8d906201000090046001600160a01b03168b83613860565b8460010194505050505061182a565b505050610175555061150691506138c39050565b6001600160a01b0381165f9081526099602052604081205461108f565b5f54610100900460ff1615808015611aeb57505f54600160ff909116105b80611b045750303b158015611b0457505f5460ff166001145b611b675760405162461bcd60e51b815260206004820152602e60248201527f496e697469616c697a61626c653a20636f6e747261637420697320616c72656160448201526d191e481a5b9a5d1a585b1a5e995960921b60648201526084016112df565b5f805460ff191660011790558015611b88575f805461ff0019166101001790555b6001600160a01b0388161580611ba557506001600160a01b038716155b80611bb757506001600160a01b038616155b80611bc957506001600160a01b038516155b80611bdb57506001600160a01b038416155b80611bed57506001600160a01b038316155b80611bff57506001600160a01b038216155b15611c1d5760405163d92e233d60e01b815260040160405180910390fd5b611c256138cb565b611c2d6138f3565b611c378a8a613921565b611c408a613951565b6101658054336001600160a01b031991821617909155610164805462010000600160b01b031916620100006001600160a01b038c81169190910291909117909155610167805483168a831617905561016c8054831689831617905561016d805483168883161790556101698054831687831617905561016a8054831686831617905561016b80549092169084161790558015611d15575f805461ff0019169055604051600181527f7f26b83ff96e1f2b6a682f133852f6798a09c465da95921460cefb38474024989060200160405180910390a15b50505050505050505050565b61016c546001600160a01b03163314611d4d57604051639cdc2ed560e01b815260040160405180910390fd5b610164805460ff1916905560405133907f94482ee2b195c365dbbc2d689fd5a088d2b219abe44360ba8895525c9471d66f905f90a2565b610167546001600160a01b03163314611db057604051634755657960e01b815260040160405180910390fd5b6101728190556040518181527f6fb7a032b839ed2aa0f2f3870c4fe262a089932484d117b921616bee424c20cc90602001610fe1565b5f6060805f805f60606065545f801b148015611e025750606654155b611e465760405162461bcd60e51b81526020600482015260156024820152741152540dcc4c8e88155b9a5b9a5d1a585b1a5e9959605a1b60448201526064016112df565b611e4e61399a565b611e566139a9565b604080515f80825260208201909252600f60f81b9b939a50919850469750309650945092509050565b61016d546001600160a01b03163314611eab57604051633703c1a360e11b815260040160405180910390fd5b610164805461ff001916905560405133907fc641b9c4afa539cedcbe2e5f3e47d9f092175b5d0b8ae72dffa634a3eb3e47e4905f90a2565b611eeb6135fe565b6101645460ff168015611f115760405163aadfaddd60e01b815260040160405180910390fd5b6101665483906001600160a01b031615801590611f9657506101665460405163fbac395160e01b81526001600160a01b0383811660048301529091169063fbac395190602401602060405180830381865afa158015611f72573d5f803e3d5ffd5b505050506040513d601f19601f82011682018060405250810190611f969190614a71565b15611fb45760405163570b866160e11b815260040160405180910390fd5b6001600160a01b038416611fdb5760405163d92e233d60e01b815260040160405180910390fd5b61018054831015611fff57604051630e815fb960e31b815260040160405180910390fd5b61017f548361200c613310565b6120169190614a0c565b111561203557604051635be6631960e01b815260040160405180910390fd5b61016454612054906201000090046001600160a01b03163330866139b8565b5f6127108461017d546120679190614a1f565b6120719190614a4a565b90505f61207e8286614a90565b9050816101735f8282546120929190614a0c565b909155506120a090506139f0565b15612149575f6120ae613310565b9050805f036120c6576120c18783613a08565b6120ee565b5f8160cd54846120d69190614a1f565b6120e09190614a4a565b90506120ec8882613a08565b505b816101755f8282546121009190614a0c565b90915550506040518281526001600160a01b038816907fe0373ef7e76896a810a0fb534378f4632066801854fa510f5735732333f994249060200160405180910390a2506121ce565b6001600160a01b0386165f90815261016e602052604081208054839290612171908490614a0c565b92505081905550806101745f82825461218a9190614a0c565b90915550506040518181526001600160a01b038716907f3e5a5abdd93d8666b11fe8a6b8c0089b7b212632c3babcc5712650c0b5e9a9e49060200160405180910390a25b50505050611506600161013255565b5f6121e9338484613a7f565b6040518281526001600160a01b0384169033907f9d9c909296d9c674451c0c24f02cb64981eb3b727f99865939192f880a755dcb9060200160405180910390a35f6122338361292f565b9050836001600160a01b0316336001600160a01b03167fddf252ad1be2c89b69c2b068fc378daa952ba7f163c4a11628f55a4df523b3ef8360405161227a91815260200190565b60405180910390a39392505050565b61016d546001600160a01b031633146122b557604051633703c1a360e11b815260040160405180910390fd5b610164805461ff00191661010017905560405133907f71e0406677c0570b2a66b1a4feeccf5c1cba2d6729435461e27a312b15410d04905f90a2565b606060378054610ffb9061492e565b610167546001600160a01b0316331461232c57604051634755657960e01b815260040160405180910390fd5b6001600160a01b0381166123535760405163d92e233d60e01b815260040160405180910390fd5b61016a80546001600160a01b0319166001600160a01b0383169081179091556040517f0b248ab246a87e452fbedee8dc12dfc53e3f3bfdc6920999062c56dea4ab522a905f90a250565b5f33816123aa8286612e96565b90508381101561240a5760405162461bcd60e51b815260206004820152602560248201527f45524332303a2064656372656173656420616c6c6f77616e63652062656c6f77604482015264207a65726f60d81b60648201526084016112df565b61120d82868684036131ed565b61016c546001600160a01b0316331461244357604051639cdc2ed560e01b815260040160405180910390fd5b61244b6135fe565b6101645460ff1680156124715760405163aadfaddd60e01b815260040160405180910390fd5b5f61247a613310565b610174549091505f808083815b88811015612628578989828181106124a1576124a1614a5d565b90506020020160208101906124b691906145a0565b610166549095506001600160a01b03161580159061253c57506101665460405163fbac395160e01b81526001600160a01b0387811660048301529091169063fbac395190602401602060405180830381865afa158015612518573d5f803e3d5ffd5b505050506040513d601f19601f8201168201806040525081019061253c9190614a71565b1561255a5760405163570b866160e11b815260040160405180910390fd5b6001600160a01b0385165f90815261016e60205260408120549450879003612584578392506125a0565b8660cd54856125939190614a1f565b61259d9190614a4a565b92505b6125aa8584613a08565b6125b48488614a0c565b6001600160a01b0386165f90815261016e602052604081205596506125d98483614a90565b60408051858152602081018790529193506001600160a01b038716917f503b7cd325ac794da2fd9b964de195affd48cdacbabe7e191a8f18594cea2b1e910160405180910390a2600101612487565b506126338186614a90565b6101755f8282546126449190614a0c565b9091555050610174555061150694506138c39350505050565b5f336110898185856133a3565b61016b546001600160a01b03163314612696576040516305238f5f60e41b815260040160405180910390fd5b61269e6135fe565b806101735f8282546126b09190614a90565b909155505061016b54610164546126da916001600160a01b03620100009092048216911683613860565b60405181815233907fdfeef5879c25440d1418a79a16489f0e739d22ac040c8c76f7b998fc704edeb8906020015b60405180910390a261137a600161013255565b610167546001600160a01b0316331461274757604051634755657960e01b815260040160405180910390fd5b6001600160a01b03811661276e5760405163d92e233d60e01b815260040160405180910390fd5b61016d80546001600160a01b0319166001600160a01b0383169081179091556040517fad0f299ec81a386c98df0ac27dae11dd020ed1b56963c53a7292e7a3a314539a905f90a250565b610169546001600160a01b031633146127e4576040516391ae0df160e01b815260040160405180910390fd5b6127ec6135fe565b61017c5461017b546127fe9042614a90565b101561281d576040516315b89e8560e21b815260040160405180910390fd5b5f6101785461017754610176546128349190614a0c565b61283e9190614a90565b90505f811180156128b65750808211801561287d575061271061017954826128669190614a1f565b6128709190614a4a565b61287a8284614a90565b10155b806128b6575080821080156128b6575061271061017a548261289f9190614a1f565b6128a99190614a4a565b6128b38383614a90565b10155b156128d457604051632313074b60e11b815260040160405180910390fd5b6101768290555f610178819055610177554261017b5560408051828152602081018490527f11c6bf55864ff83827df712625d7a80e5583eef0264921025e7cd22003a21511910160405180910390a15061137a600161013255565b5f60cd545f0361294057505f919050565b60cd5461294b613310565b6129559084614a1f565b61108f9190614a4a565b919050565b610167546001600160a01b0316331461299057604051634755657960e01b815260040160405180910390fd5b61016680546001600160a01b038381166001600160a01b031983168117909355604080519190921680825260208201939093527f20cb55f3d833480a9efb6445460463a1c5bd29e532519100958930205dadfd939101611282565b61016a546001600160a01b03163314612a1757604051633883e2a160e21b815260040160405180910390fd5b612a1f6135fe565b806101755f828254612a319190614a0c565b92505081905550806101785f828254612a4a9190614a0c565b909155505061016454612a6e906201000090046001600160a01b03163330846139b8565b60405181815233907f2e21ef3c6925a1dad9931cfb0a6d13a294d0f16c76350418c0377055f71d21bc90602001612708565b83421115612af05760405162461bcd60e51b815260206004820152601d60248201527f45524332305065726d69743a206578706972656420646561646c696e6500000060448201526064016112df565b5f7f6e71edae12b1b97f4d1f60370fef10105fa2faae0126114a169c64845d6126c9888888612b1e8c613c1f565b6040805160208101969096526001600160a01b0394851690860152929091166060840152608083015260a082015260c0810186905260e0016040516020818303038152906040528051906020012090505f612b7882613c44565b90505f612b8782878787613c70565b9050896001600160a01b0316816001600160a01b031614612bea5760405162461bcd60e51b815260206004820152601e60248201527f45524332305065726d69743a20696e76616c6964207369676e6174757265000060448201526064016112df565b611d158a8a8a6131ed565b612bfd6135fe565b6101665433906001600160a01b031615801590612c8257506101665460405163fbac395160e01b81526001600160a01b0383811660048301529091169063fbac395190602401602060405180830381865afa158015612c5e573d5f803e3d5ffd5b505050506040513d601f19601f82011682018060405250810190612c829190614a71565b15612ca05760405163570b866160e11b815260040160405180910390fd5b61016454610100900460ff168015612ccb5760405163aadfaddd60e01b815260040160405180910390fd5b61017254335f81815261016f60205260409020549091906001600160801b03808216600160801b9092048116919091031603612d1a57604051637997c04760e01b815260040160405180910390fd5b5f612d24826130b7565b9050610181548111612d365780612d38565b845b94506101815485108015612d4e57506101815481115b15612d6c57604051632856c14960e01b815260040160405180910390fd5b80851115612d8d5760405163ae2d1c4f60e01b815260040160405180910390fd5b604080518082018252868152426020808301919091526001600160a01b0385165f90815261016f90915291909120612dc59082613c98565b6001600160a01b0383165f908152610170602052604081208054889290612ded908490614a0c565b92505081905550856101715f828254612e069190614a0c565b90915550506040518681526001600160a01b038416907f222838db2794d11532d940e8dec38ae307ed0b63cd97c233322e221f998767a69060200160405180910390a2505050505061137a600161013255565b5f6101785461017754610174546101765461017554612e789190614a0c565b612e829190614a0c565b612e8c9190614a0c565b6111289190614a90565b6001600160a01b039182165f90815260346020908152604080832093909416825291909152205490565b61016a546001600160a01b03163314612eec57604051633883e2a160e21b815260040160405180910390fd5b612ef46135fe565b806101755f828254612f069190614a90565b92505081905550806101775f828254612f1f9190614a0c565b909155505061016a5461016454612f49916001600160a01b03620100009092048216911683613860565b61016a546040518281526001600160a01b03909116907faf8ffea7e1b724aeae84f569dd3dbdc9fedb986a5331688426b6112f5e76bc6590602001612708565b610167546001600160a01b03163314612fb557604051634755657960e01b815260040160405180910390fd5b612710811115612fd857604051637078b36b60e11b815260040160405180910390fd5b61017982905561017a81905560408051838152602081018390527ff37ec09f684598052410002a0b0f646daabff62025415a31ae6879cc150369819101611282565b610167546001600160a01b0316331461304657604051634755657960e01b815260040160405180910390fd5b6001600160a01b03811661306d5760405163d92e233d60e01b815260040160405180910390fd5b61016980546001600160a01b0319166001600160a01b0383169081179091556040517fc30ba487b81bdb6c23f59a55314902bb4814a5225a115a09d1d88dc2e4d7bcc5905f90a250565b6001600160a01b0381165f908152610170602090815260408083205460cc90925282205461108f9190614a90565b610167546001600160a01b0316331461311157604051634755657960e01b815260040160405180910390fd5b61017c80549082905560408051828152602081018490527f35e573fc823a1e88156d1baf519137b029a90b14633d92d26e05f6537031ab6c9101611282565b610167546001600160a01b0316331461317c57604051634755657960e01b815260040160405180910390fd5b6001600160a01b0381166131a35760405163d92e233d60e01b815260040160405180910390fd5b61016c80546001600160a01b0319166001600160a01b0383169081179091556040517fad0f299ec81a386c98df0ac27dae11dd020ed1b56963c53a7292e7a3a314539a905f90a250565b6001600160a01b03831661324f5760405162461bcd60e51b8152602060048201526024808201527f45524332303a20617070726f76652066726f6d20746865207a65726f206164646044820152637265737360e01b60648201526084016112df565b6001600160a01b0382166132b05760405162461bcd60e51b815260206004820152602260248201527f45524332303a20617070726f766520746f20746865207a65726f206164647265604482015261737360f01b60648201526084016112df565b6001600160a01b038381165f8181526034602090815260408083209487168084529482529182902085905590518481527f8c5be1e5ebec7d5bd14f71427d1e84f3dd0314c0f7b2291e5b200ac8c7c3b925910160405180910390a3505050565b5f61017854610177546101765461017554612e829190614a0c565b5f6133368484612e96565b90505f19811461339d57818110156133905760405162461bcd60e51b815260206004820152601d60248201527f45524332303a20696e73756666696369656e7420616c6c6f77616e636500000060448201526064016112df565b61339d84848484036131ed565b50505050565b5f6133ad82611772565b90506133ba848483613a7f565b826001600160a01b0316846001600160a01b03167fddf252ad1be2c89b69c2b068fc378daa952ba7f163c4a11628f55a4df523b3ef846040516133ff91815260200190565b60405180910390a3826001600160a01b0316846001600160a01b03167f9d9c909296d9c674451c0c24f02cb64981eb3b727f99865939192f880a755dcb8360405161344c91815260200190565b60405180910390a350505050565b5f611128613cf4565b610165546001600160a01b0316331461137a57604051630636a15760e11b815260040160405180910390fd5b7f4910fdfa16fed3260ed0e7147f7cc6da11a60208b5b9406d12a635614ffd91435460ff16156134c7576134c283613d67565b505050565b826001600160a01b03166352d1902d6040518163ffffffff1660e01b8152600401602060405180830381865afa925050508015613521575060408051601f3d908101601f1916820190925261351e91810190614aa3565b60015b6135845760405162461bcd60e51b815260206004820152602e60248201527f45524331393637557067726164653a206e657720696d706c656d656e7461746960448201526d6f6e206973206e6f74205555505360901b60648201526084016112df565b5f80516020614c7883398151915281146135f25760405162461bcd60e51b815260206004820152602960248201527f45524331393637557067726164653a20756e737570706f727465642070726f786044820152681a58589b195555525160ba1b60648201526084016112df565b506134c2838383613e02565b600261013254036136515760405162461bcd60e51b815260206004820152601f60248201527f5265656e7472616e637947756172643a207265656e7472616e742063616c6c0060448201526064016112df565b600261013255565b5f8061367983546001600160801b03808216600160801b90920416111590565b15613697576040516375e52f4f60e01b815260040160405180910390fd5b505080546001600160801b03165f90815260019182016020526040902080549101549091565b5f806136dd83546001600160801b03808216600160801b90920416111590565b156136fb576040516375e52f4f60e01b815260040160405180910390fd5b505080546001600160801b03165f818152600180840160205260408220805481830180549285905593909355919290613735908290614aba565b84546fffffffffffffffffffffffffffffffff19166001600160801b0391909116179093559092909150565b6001600160a01b0382166137885760405163d92e233d60e01b815260040160405180910390fd5b6001600160a01b0382165f90815260cc6020526040902054808211156137c15760405163ae2d1c4f60e01b815260040160405180910390fd5b5f6137cb8361292f565b90506137d78383614a90565b6001600160a01b0385165f90815260cc602052604090205560cd546137fd908490614a90565b60cd555f61380a8461292f565b60408051848152602081018390529081018690529091506001600160a01b038616907f1fe573752d6795213401f20cfdd24b1a10cac3d35c731523661e12f26d1a8f669060600160405180910390a25050505050565b6040516001600160a01b0383166024820152604481018290526134c290849063a9059cbb60e01b906064015b60408051601f198184030181529190526020810180516001600160e01b03166001600160e01b031990931692909217909152613e26565b600161013255565b5f54610100900460ff166138f15760405162461bcd60e51b81526004016112df90614ae1565b565b5f54610100900460ff166139195760405162461bcd60e51b81526004016112df90614ae1565b6138f1613ef9565b5f54610100900460ff166139475760405162461bcd60e51b81526004016112df90614ae1565b6115068282613f1f565b5f54610100900460ff166139775760405162461bcd60e51b81526004016112df90614ae1565b61137a81604051806040016040528060018152602001603160f81b815250613f5e565b606060678054610ffb9061492e565b606060688054610ffb9061492e565b6040516001600160a01b038085166024830152831660448201526064810182905261339d9085906323b872dd60e01b9060840161388c565b5f617080613a016201518042614b2c565b1115905090565b6001600160a01b038216613a2f5760405163d92e233d60e01b815260040160405180910390fd5b6001600160a01b0382165f90815260cc6020526040902054613a52908290614a0c565b6001600160a01b0383165f90815260cc602052604090205560cd54613a78908290614a0c565b60cd555050565b6101665483906001600160a01b031615801590613b0457506101665460405163fbac395160e01b81526001600160a01b0383811660048301529091169063fbac395190602401602060405180830381865afa158015613ae0573d5f803e3d5ffd5b505050506040513d601f19601f82011682018060405250810190613b049190614a71565b15613b225760405163570b866160e11b815260040160405180910390fd5b6001600160a01b0384161580613b3f57506001600160a01b038316155b15613b5d5760405163d92e233d60e01b815260040160405180910390fd5b306001600160a01b03841603613b86576040516329efd7a760e21b815260040160405180910390fd5b613b8f846130b7565b821115613baf5760405163ae2d1c4f60e01b815260040160405180910390fd5b6001600160a01b0384165f90815260cc602052604081208054849290613bd6908490614a90565b90915550506001600160a01b0383165f90815260cc6020526040902054613bfe908390614a0c565b6001600160a01b039093165f90815260cc6020526040902092909255505050565b6001600160a01b0381165f9081526099602052604090208054600181018255906117ad565b5f61108f613c5061345a565b8360405161190160f01b8152600281019290925260228201526042902090565b5f805f613c7f87878787613fab565b91509150613c8c81614068565b5090505b949350505050565b8154600160801b90046001600160801b03165f818152600180850160209081526040909220845181559184015191810191909155613cd7908290614aba565b83546001600160801b03918216600160801b029116179092555050565b5f7f8b73c3c69bb8fe3d512ecc4cf759cc79239f7b179b0ffacaa9a75d522b39400f613d1e6141b1565b613d26614209565b60408051602081019490945283019190915260608201524660808201523060a082015260c00160405160208183030381529060405280519060200120905090565b6001600160a01b0381163b613dd45760405162461bcd60e51b815260206004820152602d60248201527f455243313936373a206e657720696d706c656d656e746174696f6e206973206e60448201526c1bdd08184818dbdb9d1c9858dd609a1b60648201526084016112df565b5f80516020614c7883398151915280546001600160a01b0319166001600160a01b0392909216919091179055565b613e0b83614239565b5f82511180613e175750805b156134c25761339d8383614278565b5f613e7a826040518060400160405280602081526020017f5361666545524332303a206c6f772d6c6576656c2063616c6c206661696c6564815250856001600160a01b031661429d9092919063ffffffff16565b905080515f1480613e9a575080806020019051810190613e9a9190614a71565b6134c25760405162461bcd60e51b815260206004820152602a60248201527f5361666545524332303a204552433230206f7065726174696f6e20646964206e6044820152691bdd081cdd58d8d9595960b21b60648201526084016112df565b5f54610100900460ff166138c35760405162461bcd60e51b81526004016112df90614ae1565b5f54610100900460ff16613f455760405162461bcd60e51b81526004016112df90614ae1565b6036613f518382614b8c565b5060376134c28282614b8c565b5f54610100900460ff16613f845760405162461bcd60e51b81526004016112df90614ae1565b6067613f908382614b8c565b506068613f9d8282614b8c565b50505f606581905560665550565b5f807f7fffffffffffffffffffffffffffffff5d576e7357a4501ddfe92f46681b20a0831115613fe057505f9050600361405f565b604080515f8082526020820180845289905260ff881692820192909252606081018690526080810185905260019060a0016020604051602081039080840390855afa158015614031573d5f803e3d5ffd5b5050604051601f1901519150506001600160a01b038116614059575f6001925092505061405f565b91505f90505b94509492505050565b5f81600481111561407b5761407b614c48565b036140835750565b600181600481111561409757614097614c48565b036140e45760405162461bcd60e51b815260206004820152601860248201527f45434453413a20696e76616c6964207369676e6174757265000000000000000060448201526064016112df565b60028160048111156140f8576140f8614c48565b036141455760405162461bcd60e51b815260206004820152601f60248201527f45434453413a20696e76616c6964207369676e6174757265206c656e6774680060448201526064016112df565b600381600481111561415957614159614c48565b0361137a5760405162461bcd60e51b815260206004820152602260248201527f45434453413a20696e76616c6964207369676e6174757265202773272076616c604482015261756560f01b60648201526084016112df565b5f806141bb61399a565b8051909150156141d2578051602090910120919050565b60655480156141e15792915050565b7fc5d2460186f7233c927e7db2dcc703c0e500b653ca82273b7bfad8045d85a4709250505090565b5f806142136139a9565b80519091501561422a578051602090910120919050565b60665480156141e15792915050565b61424281613d67565b6040516001600160a01b038216907fbc7cd75a20ee27fd9adebab32041f755214dbc6bffa90cc0225b39da2e5c2d3b905f90a250565b60606117a68383604051806060016040528060278152602001614c98602791396142ab565b6060613c9084845f8561431f565b60605f80856001600160a01b0316856040516142c79190614c5c565b5f60405180830381855af49150503d805f81146142ff576040519150601f19603f3d011682016040523d82523d5f602084013e614304565b606091505b5091509150614315868383876143f6565b9695505050505050565b6060824710156143805760405162461bcd60e51b815260206004820152602660248201527f416464726573733a20696e73756666696369656e742062616c616e636520666f6044820152651c8818d85b1b60d21b60648201526084016112df565b5f80866001600160a01b0316858760405161439b9190614c5c565b5f6040518083038185875af1925050503d805f81146143d5576040519150601f19603f3d011682016040523d82523d5f602084013e6143da565b606091505b50915091506143eb878383876143f6565b979650505050505050565b606083156144645782515f0361445d576001600160a01b0385163b61445d5760405162461bcd60e51b815260206004820152601d60248201527f416464726573733a2063616c6c20746f206e6f6e2d636f6e747261637400000060448201526064016112df565b5081613c90565b613c9083838151156144795781518083602001fd5b8060405162461bcd60e51b81526004016112df91906144f7565b5f602082840312156144a3575f80fd5b5035919050565b5f5b838110156144c45781810151838201526020016144ac565b50505f910152565b5f81518084526144e38160208601602086016144aa565b601f01601f19169290920160200192915050565b602081525f6117a660208301846144cc565b80356001600160a01b038116811461295f575f80fd5b5f8060408385031215614530575f80fd5b61453983614509565b946020939093013593505050565b5f805f60608486031215614559575f80fd5b61456284614509565b925061457060208501614509565b9150604084013590509250925092565b5f8060408385031215614591575f80fd5b50508035926020909101359150565b5f602082840312156145b0575f80fd5b6117a682614509565b634e487b7160e01b5f52604160045260245ffd5b5f67ffffffffffffffff808411156145e7576145e76145b9565b604051601f8501601f19908116603f0116810190828211818310171561460f5761460f6145b9565b81604052809350858152868686011115614627575f80fd5b858560208301375f602087830101525050509392505050565b5f8060408385031215614651575f80fd5b61465a83614509565b9150602083013567ffffffffffffffff811115614675575f80fd5b8301601f81018513614685575f80fd5b614694858235602084016145cd565b9150509250929050565b5f80602083850312156146af575f80fd5b823567ffffffffffffffff808211156146c6575f80fd5b818501915085601f8301126146d9575f80fd5b8135818111156146e7575f80fd5b8660208260051b85010111156146fb575f80fd5b60209290920196919550909350505050565b5f82601f83011261471c575f80fd5b6117a6838335602085016145cd565b5f805f805f805f805f6101208a8c031215614744575f80fd5b893567ffffffffffffffff8082111561475b575f80fd5b6147678d838e0161470d565b9a5060208c013591508082111561477c575f80fd5b506147898c828d0161470d565b98505061479860408b01614509565b96506147a660608b01614509565b95506147b460808b01614509565b94506147c260a08b01614509565b93506147d060c08b01614509565b92506147de60e08b01614509565b91506147ed6101008b01614509565b90509295985092959850929598565b60ff60f81b881681525f602060e08184015261481b60e084018a6144cc565b838103604085015261482d818a6144cc565b606085018990526001600160a01b038816608086015260a0850187905284810360c086015285518082528387019250908301905f5b8181101561487e57835183529284019291840191600101614862565b50909c9b505050505050505050505050565b5f805f805f805f60e0888a0312156148a6575f80fd5b6148af88614509565b96506148bd60208901614509565b95506040880135945060608801359350608088013560ff811681146148e0575f80fd5b9699959850939692959460a0840135945060c09093013592915050565b5f806040838503121561490e575f80fd5b61491783614509565b915061492560208401614509565b90509250929050565b600181811c9082168061494257607f821691505b6020821081036117ad57634e487b7160e01b5f52602260045260245ffd5b6020808252602c908201527f46756e6374696f6e206d7573742062652063616c6c6564207468726f7567682060408201526b19195b1959d85d1958d85b1b60a21b606082015260800190565b6020808252602c908201527f46756e6374696f6e206d7573742062652063616c6c6564207468726f7567682060408201526b6163746976652070726f787960a01b606082015260800190565b634e487b7160e01b5f52601160045260245ffd5b8082018082111561108f5761108f6149f8565b808202811582820484141761108f5761108f6149f8565b634e487b7160e01b5f52601260045260245ffd5b5f82614a5857614a58614a36565b500490565b634e487b7160e01b5f52603260045260245ffd5b5f60208284031215614a81575f80fd5b815180151581146117a6575f80fd5b8181038181111561108f5761108f6149f8565b5f60208284031215614ab3575f80fd5b5051919050565b6001600160801b03818116838216019080821115614ada57614ada6149f8565b5092915050565b6020808252602b908201527f496e697469616c697a61626c653a20636f6e7472616374206973206e6f74206960408201526a6e697469616c697a696e6760a81b606082015260800190565b5f82614b3a57614b3a614a36565b500690565b601f8211156134c2575f81815260208120601f850160051c81016020861015614b655750805b601f850160051c820191505b81811015614b8457828155600101614b71565b505050505050565b815167ffffffffffffffff811115614ba657614ba66145b9565b614bba81614bb4845461492e565b84614b3f565b602080601f831160018114614bed575f8415614bd65750858301515b5f19600386901b1c1916600185901b178555614b84565b5f85815260208120601f198616915b82811015614c1b57888601518255948401946001909101908401614bfc565b5085821015614c3857878501515f19600388901b60f8161c191681555b5050505050600190811b01905550565b634e487b7160e01b5f52602160045260245ffd5b5f8251614c6d8184602087016144aa565b919091019291505056fe360894a13ba1a3210667c828492db98dca3e2076cc3735a920a3ca505d382bbc416464726573733a206c6f772d6c6576656c2064656c65676174652063616c6c206661696c6564a26469706673582212205712e672fb094aa3bf602f9e3c68a95503ae959b6790ba1a72c87138b543e6a964736f6c6343000815003360806040526040516104c43803806104c4833981016040819052610022916102d2565b61002d82825f610034565b50506103e7565b61003d8361005f565b5f825111806100495750805b1561005a57610058838361009e565b505b505050565b610068816100ca565b6040516001600160a01b038216907fbc7cd75a20ee27fd9adebab32041f755214dbc6bffa90cc0225b39da2e5c2d3b905f90a250565b60606100c3838360405180606001604052806027815260200161049d6027913961017d565b9392505050565b6001600160a01b0381163b61013c5760405162461bcd60e51b815260206004820152602d60248201527f455243313936373a206e657720696d706c656d656e746174696f6e206973206e60448201526c1bdd08184818dbdb9d1c9858dd609a1b60648201526084015b60405180910390fd5b7f360894a13ba1a3210667c828492db98dca3e2076cc3735a920a3ca505d382bbc80546001600160a01b0319166001600160a01b0392909216919091179055565b60605f80856001600160a01b031685604051610199919061039a565b5f60405180830381855af49150503d805f81146101d1576040519150601f19603f3d011682016040523d82523d5f602084013e6101d6565b606091505b5090925090506101e8868383876101f2565b9695505050505050565b606083156102605782515f03610259576001600160a01b0385163b6102595760405162461bcd60e51b815260206004820152601d60248201527f416464726573733a2063616c6c20746f206e6f6e2d636f6e74726163740000006044820152606401610133565b508161026a565b61026a8383610272565b949350505050565b8151156102825781518083602001fd5b8060405162461bcd60e51b815260040161013391906103b5565b634e487b7160e01b5f52604160045260245ffd5b5f5b838110156102ca5781810151838201526020016102b2565b50505f910152565b5f80604083850312156102e3575f80fd5b82516001600160a01b03811681146102f9575f80fd5b60208401519092506001600160401b0380821115610315575f80fd5b818501915085601f830112610328575f80fd5b81518181111561033a5761033a61029c565b604051601f8201601f19908116603f011681019083821181831017156103625761036261029c565b8160405282815288602084870101111561037a575f80fd5b61038b8360208301602088016102b0565b80955050505050509250929050565b5f82516103ab8184602087016102b0565b9190910192915050565b602081525f82518060208401526103d38160408501602087016102b0565b601f01601f19169190910160400192915050565b60aa806103f35f395ff3fe608060405236601057600e6013565b005b600e5b601f601b6021565b6057565b565b5f60527f360894a13ba1a3210667c828492db98dca3e2076cc3735a920a3ca505d382bbc546001600160a01b031690565b905090565b365f80375f80365f845af43d5f803e8080156070573d5ff35b3d5ffdfea26469706673582212206d2d0bd2f004ff9c0ac5a646f3bc03a770505af962365cd4ca0f4a128b25c37764736f6c63430008150033416464726573733a206c6f772d6c6576656c2064656c65676174652063616c6c206661696c6564696e697469616c697a6528737472696e672c737472696e672c616464726573732c616464726573732c616464726573732c616464726573732c616464726573732c616464726573732c6164647265737329a2646970667358221220d28b3a05da19a3a2ce65b72e397d78e805c88d90d07c0f28d6b46511a974025f64736f6c63430008150033",
  "linkReferences": {},
  "deployedLinkReferences": {}
}